:100000000C942A000C9447000C9447000C94470071
:100010000C9447000C9447000C9447000C94470044
:100020000C9447000C9447000C9447000C94470034
:100030000C9447000C9447000C9447000C94470024
:100040000C9447000C9447000C9447000C94470014
:100050000C94470011241FBECFE5D8E0DEBFCDBF12
:1000600010E0A0E6B0E0E8E4F9E002C005900D92EF
:10007000A036B107D9F710E0A0E6B0E001C01D92AC
:10008000A036B107E1F70E949B030C94A2040C94E4
:10009000000040E00E94500008950E94BF010895B2
:1000A000843409F471C0853448F4823499F183347E
:1000B00008F04DC0813409F083C00FC0823651F181
:1000C000833620F4813609F07BC007C0833609F4FB
:1000D0003EC0843609F074C057C0413069F42AB379
:1000E00081E090E0AC0102C0440F551F6A95E2F731
:1000F000BA01622B6ABB08952AB381E090E0AC019B
:1001000002C0440F551F6A95E2F7BA016095622359
:100110006ABB0895413069F427B381E090E0AC01F7
:1001200002C0440F551F6A95E2F7BA01622B67BB04
:10013000089527B381E090E0AC0102C0440F551F41
:100140006A95E2F7BA016095622367BB0895413072
:1001500069F424B381E090E0AC0102C0440F551F64
:100160006A95E2F7BA01622B64BB089524B381E07B
:1001700090E0AC0102C0440F551F6A95E2F7BA0146
:100180006095622364BB0895413069F421B381E036
:1001900090E0AC0102C0440F551F6A95E2F7BA0126
:1001A000622B61BB089521B381E090E0AC0102C0F5
:1001B000440F551F6A95E2F7BA016095622361BB4F
:1001C0000895843409F471C0853448F4823499F177
:1001D000833408F04DC0813409F083C00FC08236EB
:1001E00051F1833620F4813609F07BC007C0833695
:1001F00009F43EC0843609F074C057C0413069F438
:100200002BB381E090E0AC0102C0440F551F6A950A
:10021000E2F7BA01622B6BBB08952BB381E090E04B
:10022000AC0102C0440F551F6A95E2F7BA01609510
:1002300062236BBB0895413069F428B381E090E0FC
:10024000AC0102C0440F551F6A95E2F7BA01622B58
:1002500068BB089528B381E090E0AC0102C0440F70
:10026000551F6A95E2F7BA016095622368BB08954D
:10027000413069F425B381E090E0AC0102C0440F45
:10028000551F6A95E2F7BA01622B65BB089525B345
:1002900081E090E0AC0102C0440F551F6A95E2F77F
:1002A000BA016095622365BB0895413069F422B3B9
:1002B00081E090E0AC0102C0440F551F6A95E2F75F
:1002C000BA01622B62BB089522B381E090E0AC01D9
:1002D00002C0440F551F6A95E2F7BA016095622388
:1002E00062BB0895843409F43DC0853440F48234FF
:1002F000F9F0833450F5813409F040C00CC08236E7
:10030000B9F0833618F48136C9F505C08336E9F0B3
:100310008436A1F527C02BB381E090E0AC0102C088
:10032000440F551F6A95E2F7BA0162276BBB089527
:1003300028B381E090E0AC0102C0440F551F6A95DC
:10034000E2F7BA01622768BB089525B381E090E027
:10035000AC0102C0440F551F6A95E2F7BA0162274B
:1003600065BB089522B381E090E0AC0102C0440F68
:10037000551F6A95E2F7BA01622762BB089584347B
:1003800009F44EC0853440F4823431F18334B0F541
:10039000813409F057C00EC08236F1F0833620F464
:1003A000813609F04FC006C0833641F1843609F02A
:1003B00049C036C029B381E090E0062E02C0880F04
:1003C000991F0A94E2F730E08223932302C09595A7
:1003D00087956A95E2F7089526B381E090E0062EAE
:1003E00002C0880F991F0A94E2F730E0822393231A
:1003F00002C0959587956A95E2F7089523B381E049
:1004000090E0062E02C0880F991F0A94E2F730E0B0
:100410008223932302C0959587956A95E2F7089504
:1004200020B381E090E0062E02C0880F991F0A9445
:10043000E2F730E08223932302C0959587956A9571
:10044000E2F7089580E008958434D9F0853438F4D3
:10045000823499F0833498F48134A1F40CC082364C
:1004600061F0833618F4813669F405C0833639F0BB
:10047000843641F406C06ABB089567BB089564BB27
:10048000089561BB08958434D9F0853438F48234FA
:1004900099F0833498F48134A1F40CC0823661F071
:1004A000833618F4813669F405C0833639F0843612
:1004B00041F406C06BBB089568BB089565BB089501
:1004C00062BB0895843409F1853438F48234A9F08C
:1004D0008334B8F48134E1F40CC0823671F0833691
:1004E00018F48136A9F405C0833659F0843681F4B6
:1004F0000CC08BB380958BBB089588B3809588BB67
:10050000089585B3809585BB089582B3809582BB9D
:1005100008958434D9F0853438F4823499F08334E2
:1005200098F48134A9F40CC0823661F0833618F453
:10053000813671F405C0833639F0843649F406C03B
:1005400080B3089586B3089583B3089580B3089562
:1005500080E00895843409F471C0853448F482340D
:1005600099F1833408F04DC0813409F083C00FC085
:10057000823651F1833620F4813609F07BC007C002
:10058000833609F43EC0843609F074C057C0413048
:1005900069F42BB381E090E0AC0102C0440F551F19
:1005A0006A95E2F7BA01622B6BBB08952BB381E029
:1005B00090E0AC0102C0440F551F6A95E2F7BA0102
:1005C000609562236BBB0895413069F428B381E0E4
:1005D00090E0AC0102C0440F551F6A95E2F7BA01E2
:1005E000622B68BB089528B381E090E0AC0102C0A3
:1005F000440F551F6A95E2F7BA016095622368BB04
:100600000895413069F425B381E090E0AC0102C067
:10061000440F551F6A95E2F7BA01622B65BB089536
:1006200025B381E090E0AC0102C0440F551F6A95EC
:10063000E2F7BA016095622365BB0895413069F421
:1006400022B381E090E0AC0102C0440F551F6A95CF
:10065000E2F7BA01622B62BB089522B381E090E019
:10066000AC0102C0440F551F6A95E2F7BA016095CC
:10067000622362BB08950F931F93CF93C82F062F59
:10068000462F417060E00E94E10010E0A801427036
:100690005070559547958C2F61E00E94E100A801AC
:1006A0004470507055954795559547958C2F62E04D
:1006B0000E94E10008701070A80155954795559566
:1006C0004795559547958C2F63E00E94E100CF91A7
:1006D0001F910F9108950F931F93CF93C82F062F4B
:1006E000462F417063E00E94E10010E0A8014270D3
:1006F0005070559547958C2F64E00E94E100A80149
:100700004470507055954795559547958C2F65E0E9
:100710000E94E10008701070A80155954795559505
:100720004795559547958C2F66E00E94E100CF9143
:100730001F910F91089560E875E280E090E00E94BB
:100740003D048FE79BE8A8E081509040A040E1F78E
:1007500000C0000083E660E00E94490083E661E09B
:100760000E94490083E662E00E94490083E663E05C
:100770000E94490083E690E060E070E041E050E0D4
:100780000E94AA0283E690E061E070E041E050E060
:100790000E94AA0283E690E062E070E041E050E04F
:1007A0000E94AA0283E690E063E070E041E050E03E
:1007B0000E94AA0283E660E00E944D00882391F423
:1007C0008FEF90E7A2E081509040A040E1F700C099
:1007D000000083E660E00E944D00882319F481E464
:1007E0000E94600483E661E00E944D00882391F43A
:1007F0008FEF90E7A2E081509040A040E1F700C069
:10080000000083E661E00E944D00882319F482E431
:100810000E94600483E662E00E944D00882391F408
:100820008FEF90E7A2E081509040A040E1F700C038
:10083000000083E662E00E944D00882319F483E4FF
:100840000E94600483E663E00E944D00882309F063
:10085000B1CF8FEF90E7A2E081509040A040E1F748
:1008600000C0000083E663E00E944D00882309F089
:10087000A1CF8FE40E9460049DCFDC01CB01880FE3
:10088000991FAA1FBB1F880F991FAA1FBB1F9C017E
:10089000AD01220F331F441F551F220F331F441F6A
:1008A000551F60E072E18AE790E00E9480042150C9
:1008B000304030BD29B9539A549A86E880BD0895D6
:1008C0005D9BFECF8CB908955F9BFECF8CB10895E0
:1008D000CF93DF93EC018881882379F021960E94E1
:1008E00060048FEF90E7A2E081509040A040E1F7D4
:1008F00000C000008991882391F7DF91CF9108957E
:10090000A1E21A2EAA1BBB1BFD010DC0AA1FBB1F13
:10091000EE1FFF1FA217B307E407F50720F0A21B85
:10092000B30BE40BF50B661F771F881F991F1A94F2
:1009300069F760957095809590959B01AC01BD011C
:08094000CF010895F894FFCFE8
:00000001FF
